{
  "_format": "hh-sol-artifact-1",
  "contractName": "Upload",
  "sourceName": "src/backend/contracts/Upload.sol",
  "abi": [
    {
      "inputs": [
        {
          "internalType": "uint256",
          "name": "id",
          "type": "uint256"
        }
      ],
      "name": "getTokenURI",
      "outputs": [
        {
          "internalType": "string",
          "name": "",
          "type": "string"
        }
      ],
      "stateMutability": "view",
      "type": "function"
    },
    {
      "inputs": [
        {
          "internalType": "uint256",
          "name": "",
          "type": "uint256"
        }
      ],
      "name": "tokenCID",
      "outputs": [
        {
          "internalType": "string",
          "name": "",
          "type": "string"
        }
      ],
      "stateMutability": "view",
      "type": "function"
    },
    {
      "inputs": [],
      "name": "tokenId",
      "outputs": [
        {
          "internalType": "uint256",
          "name": "",
          "type": "uint256"
        }
      ],
      "stateMutability": "view",
      "type": "function"
    },
    {
      "inputs": [
        {
          "internalType": "string",
          "name": "_CID",
          "type": "string"
        }
      ],
      "name": "uploadImage",
      "outputs": [
        {
          "internalType": "uint256",
          "name": "",
          "type": "uint256"
        }
      ],
      "stateMutability": "nonpayable",
      "type": "function"
    }
  ],
  "bytecode": "0x608060405234801561001057600080fd5b506106fa806100206000396000f3fe608060405234801561001057600080fd5b506004361061004c5760003560e01c806317d70f7c146100515780633bb3a24d1461006f5780636972fbb81461009f578063e740c8a0146100cf575b600080fd5b6100596100ff565b604051610066919061048a565b60405180910390f35b610089600480360381019061008491906103f7565b610105565b6040516100969190610468565b60405180910390f35b6100b960048036038101906100b491906103f7565b6101aa565b6040516100c69190610468565b60405180910390f35b6100e960048036038101906100e491906103b6565b61024a565b6040516100f6919061048a565b60405180910390f35b60005481565b606060016000838152602001908152602001600020805461012590610563565b80601f016020809104026020016040519081016040528092919081815260200182805461015190610563565b801561019e5780601f106101735761010080835404028352916020019161019e565b820191906000526020600020905b81548152906001019060200180831161018157829003601f168201915b50505050509050919050565b600160205280600052604060002060009150905080546101c990610563565b80601f01602080910402602001604051908101604052809291908181526020018280546101f590610563565b80156102425780601f1061021757610100808354040283529160200191610242565b820191906000526020600020905b81548152906001019060200180831161022557829003601f168201915b505050505081565b600080600081548092919061025e906105c6565b9190505550816001600080548152602001908152602001600020908051906020019061028b929190610296565b506000549050919050565b8280546102a290610563565b90600052602060002090601f0160209004810192826102c4576000855561030b565b82601f106102dd57805160ff191683800117855561030b565b8280016001018555821561030b579182015b8281111561030a5782518255916020019190600101906102ef565b5b509050610318919061031c565b5090565b5b8082111561033557600081600090555060010161031d565b5090565b600061034c610347846104ca565b6104a5565b90508281526020810184848401111561036457600080fd5b61036f848285610521565b509392505050565b600082601f83011261038857600080fd5b8135610398848260208601610339565b91505092915050565b6000813590506103b0816106ad565b92915050565b6000602082840312156103c857600080fd5b600082013567ffffffffffffffff8111156103e257600080fd5b6103ee84828501610377565b91505092915050565b60006020828403121561040957600080fd5b6000610417848285016103a1565b91505092915050565b600061042b826104fb565b6104358185610506565b9350610445818560208601610530565b61044e8161069c565b840191505092915050565b61046281610517565b82525050565b600060208201905081810360008301526104828184610420565b905092915050565b600060208201905061049f6000830184610459565b92915050565b60006104af6104c0565b90506104bb8282610595565b919050565b6000604051905090565b600067ffffffffffffffff8211156104e5576104e461066d565b5b6104ee8261069c565b9050602081019050919050565b600081519050919050565b600082825260208201905092915050565b6000819050919050565b82818337600083830152505050565b60005b8381101561054e578082015181840152602081019050610533565b8381111561055d576000848401525b50505050565b6000600282049050600182168061057b57607f821691505b6020821081141561058f5761058e61063e565b5b50919050565b61059e8261069c565b810181811067ffffffffffffffff821117156105bd576105bc61066d565b5b80604052505050565b60006105d182610517565b91507fffffffffffffffffffffffffffffffffffffffffffffffffffffffffffffffff8214156106045761060361060f565b5b600182019050919050565b7f4e487b7100000000000000000000000000000000000000000000000000000000600052601160045260246000fd5b7f4e487b7100000000000000000000000000000000000000000000000000000000600052602260045260246000fd5b7f4e487b7100000000000000000000000000000000000000000000000000000000600052604160045260246000fd5b6000601f19601f8301169050919050565b6106b681610517565b81146106c157600080fd5b5056fea2646970667358221220d840d6a2965eda6dfbfe8bffe43c772a2d6cc486ee079616826f45ffaf1e783264736f6c63430008040033",
  "linkReferences": {},
  "deployedLinkReferences": {}
}